{"abi":[{"type":"function","name":"swapMultiHopExactAmountIn","inputs":[{"name":"amountIn","type":"uint256","internalType":"uint256"},{"name":"amountOutMin","type":"uint256","internalType":"uint256"}],"outputs":[{"name":"","type":"uint256","internalType":"uint256"}],"stateMutability":"nonpayable"},{"type":"function","name":"swapMultiHopExactAmountOut","inputs":[{"name":"amountInMax","type":"uint256","internalType":"uint256"},{"name":"amountOut","type":"uint256","internalType":"uint256"}],"outputs":[{"name":"","type":"uint256","internalType":"uint256"}],"stateMutability":"nonpayable"},{"type":"function","name":"swapSingleHopExactAmountIn","inputs":[{"name":"amountIn","type":"uint256","internalType":"uint256"},{"name":"amountOutMin","type":"uint256","internalType":"uint256"}],"outputs":[{"name":"","type":"uint256","internalType":"uint256"}],"stateMutability":"nonpayable"},{"type":"function","name":"swapSingleHopExactAmountOut","inputs":[{"name":"amountInMax","type":"uint256","internalType":"uint256"},{"name":"amountOut","type":"uint256","internalType":"uint256"}],"outputs":[{"name":"","type":"uint256","internalType":"uint256"}],"stateMutability":"nonpayable"}],"bytecode":{"object":"0x6080604052600080546001600160a01b031990811673c02aaa39b223fe8d0a0e5c4f27ead9083c756cc217909155600180548216736b175474e89094c44da98b954eedeac495271d0f1790556002805490911673a0b86991c6218b36c1d19d4a2e9eb0ce3606eb4817905534801561007657600080fd5b50610e3d806100866000396000f3fe608060405234801561001057600080fd5b506004361061004c5760003560e01c80633dfd8f8514610051578063a00edeff14610076578063da8458df14610089578063e47677771461009c575b600080fd5b61006461005f366004610c1a565b6100af565b60405190815260200160405180910390f35b610064610084366004610c1a565b6103da565b610064610097366004610c1a565b61073c565b6100646100aa366004610c1a565b6109d0565b600080546040516323b872dd60e01b81526001600160a01b03909116906323b872dd906100e490339030908890600401610c3c565b6020604051808303816000875af1158015610103573d6000803e3d6000fd5b505050506040513d601f19601f820116820180604052508101906101279190610c60565b5060005460405163095ea7b360e01b8152737a250d5630b4cf539739df2c5dacb4c659f2488d6004820152602481018590526001600160a01b039091169063095ea7b3906044016020604051808303816000875af115801561018d573d6000803e3d6000fd5b505050506040513d601f19601f820116820180604052508101906101b19190610c60565b5060408051600280825260608201835260009260208301908036833701905050905073c02aaa39b223fe8d0a0e5c4f27ead9083c756cc2816000815181106101fb576101fb610c9f565b60200260200101906001600160a01b031690816001600160a01b031681525050736b175474e89094c44da98b954eedeac495271d0f8160018151811061024357610243610c9f565b6001600160a01b0390921660209283029190910190910152604051634401edf760e11b8152600090737a250d5630b4cf539739df2c5dacb4c659f2488d90638803dbee9061029d9087908990879033904290600401610cb5565b6000604051808303816000875af11580156102bc573d6000803e3d6000fd5b505050506040513d6000823e601f3d908101601f191682016040526102e49190810190610d28565b905084816000815181106102fa576102fa610c9f565b602002602001015110156103b4576000805482516001600160a01b039091169163a9059cbb913391859161033057610330610c9f565b6020026020010151886103439190610de6565b6040516001600160e01b031960e085901b1681526001600160a01b03909216600483015260248201526044016020604051808303816000875af115801561038e573d6000803e3d6000fd5b505050506040513d601f19601f820116820180604052508101906103b29190610c60565b505b806001815181106103c7576103c7610c9f565b6020026020010151925050505b92915050565b600080546040516323b872dd60e01b81526001600160a01b03909116906323b872dd9061040f90339030908890600401610c3c565b6020604051808303816000875af115801561042e573d6000803e3d6000fd5b505050506040513d601f19601f820116820180604052508101906104529190610c60565b5060005460405163095ea7b360e01b8152737a250d5630b4cf539739df2c5dacb4c659f2488d6004820152602481018590526001600160a01b039091169063095ea7b3906044016020604051808303816000875af11580156104b8573d6000803e3d6000fd5b505050506040513d601f19601f820116820180604052508101906104dc9190610c60565b50604080516003808252608082019092526000916020820160608036833701905050905073c02aaa39b223fe8d0a0e5c4f27ead9083c756cc28160008151811061052857610528610c9f565b60200260200101906001600160a01b031690816001600160a01b031681525050736b175474e89094c44da98b954eedeac495271d0f8160018151811061057057610570610c9f565b60200260200101906001600160a01b031690816001600160a01b03168152505073a0b86991c6218b36c1d19d4a2e9eb0ce3606eb48816002815181106105b8576105b8610c9f565b6001600160a01b0390921660209283029190910190910152604051634401edf760e11b8152600090737a250d5630b4cf539739df2c5dacb4c659f2488d90638803dbee906106129087908990879033904290600401610cb5565b6000604051808303816000875af1158015610631573d6000803e3d6000fd5b505050506040513d6000823e601f3d908101601f191682016040526106599190810190610d28565b9050848160008151811061066f5761066f610c9f565b60200260200101511015610729576000805482516001600160a01b039091169163a9059cbb91339185916106a5576106a5610c9f565b6020026020010151886106b89190610de6565b6040516001600160e01b031960e085901b1681526001600160a01b03909216600483015260248201526044016020604051808303816000875af1158015610703573d6000803e3d6000fd5b505050506040513d601f19601f820116820180604052508101906107279190610c60565b505b806002815181106103c7576103c7610c9f565b600080546040516323b872dd60e01b81526001600160a01b03909116906323b872dd9061077190339030908890600401610c3c565b6020604051808303816000875af1158015610790573d6000803e3d6000fd5b505050506040513d601f19601f820116820180604052508101906107b49190610c60565b5060005460405163095ea7b360e01b8152737a250d5630b4cf539739df2c5dacb4c659f2488d6004820152602481018590526001600160a01b039091169063095ea7b3906044016020604051808303816000875af115801561081a573d6000803e3d6000fd5b505050506040513d601f19601f8201168201806040525081019061083e9190610c60565b50604080516003808252608082019092526000916020820160608036833701905050905073c02aaa39b223fe8d0a0e5c4f27ead9083c756cc28160008151811061088a5761088a610c9f565b60200260200101906001600160a01b031690816001600160a01b031681525050736b175474e89094c44da98b954eedeac495271d0f816001815181106108d2576108d2610c9f565b60200260200101906001600160a01b031690816001600160a01b03168152505073a0b86991c6218b36c1d19d4a2e9eb0ce3606eb488160028151811061091a5761091a610c9f565b6001600160a01b03909216602092830291909101909101526040516338ed173960e01b8152600090737a250d5630b4cf539739df2c5dacb4c659f2488d906338ed1739906109749088908890879033904290600401610cb5565b6000604051808303816000875af1158015610993573d6000803e3d6000fd5b505050506040513d6000823e601f3d908101601f191682016040526109bb9190810190610d28565b9050806002815181106103c7576103c7610c9f565b600080546040516323b872dd60e01b81526001600160a01b03909116906323b872dd90610a0590339030908890600401610c3c565b6020604051808303816000875af1158015610a24573d6000803e3d6000fd5b505050506040513d601f19601f82011682018060405250810190610a489190610c60565b5060005460405163095ea7b360e01b8152737a250d5630b4cf539739df2c5dacb4c659f2488d6004820152602481018590526001600160a01b039091169063095ea7b3906044016020604051808303816000875af1158015610aae573d6000803e3d6000fd5b505050506040513d601f19601f82011682018060405250810190610ad29190610c60565b5060408051600280825260608201835260009260208301908036833701905050905073c02aaa39b223fe8d0a0e5c4f27ead9083c756cc281600081518110610b1c57610b1c610c9f565b60200260200101906001600160a01b031690816001600160a01b031681525050736b175474e89094c44da98b954eedeac495271d0f81600181518110610b6457610b64610c9f565b6001600160a01b03909216602092830291909101909101526040516338ed173960e01b8152600090737a250d5630b4cf539739df2c5dacb4c659f2488d906338ed173990610bbe9088908890879033904290600401610cb5565b6000604051808303816000875af1158015610bdd573d6000803e3d6000fd5b505050506040513d6000823e601f3d908101601f19168201604052610c059190810190610d28565b9050806001815181106103c7576103c7610c9f565b60008060408385031215610c2d57600080fd5b50508035926020909101359150565b6001600160a01b039384168152919092166020820152604081019190915260600190565b600060208284031215610c7257600080fd5b81518015158114610c8257600080fd5b9392505050565b634e487b7160e01b600052604160045260246000fd5b634e487b7160e01b600052603260045260246000fd5b600060a08201878352602087602085015260a0604085015281875180845260c08601915060208901935060005b81811015610d075784516001600160a01b031683529383019391830191600101610ce2565b50506001600160a01b03969096166060850152505050608001529392505050565b60006020808385031215610d3b57600080fd5b825167ffffffffffffffff80821115610d5357600080fd5b818501915085601f830112610d6757600080fd5b815181811115610d7957610d79610c89565b8060051b604051601f19603f83011681018181108582111715610d9e57610d9e610c89565b604052918252848201925083810185019188831115610dbc57600080fd5b938501935b82851015610dda57845184529385019392850192610dc1565b98975050505050505050565b818103818111156103d457634e487b7160e01b600052601160045260246000fdfea2646970667358221220e7775dd777b3a49fb1a8901674e6ff2972c43e53408d98c85b15eb4f43dfd8c164736f6c63430008170033","linkReferences":{}},"methodIdentifiers":{"swapMultiHopExactAmountIn(uint256,uint256)":"da8458df","swapMultiHopExactAmountOut(uint256,uint256)":"a00edeff","swapSingleHopExactAmountIn(uint256,uint256)":"e4767777","swapSingleHopExactAmountOut(uint256,uint256)":"3dfd8f85"},"id":20}